:1008CB005246494420424153454420434152005033
:1008DB0041524B494E472053595354454D004D41BE
:1008EB004445204259005445414D20323600535760
:1008FB0049504520594F55522043415244004153D2
:10090B00534F43494154494F4E204D454D4245525B
:10091B000030786330005348554248414D20414EDA
:10092B00494B455400444F4F52204F50454E494E72
:10093B004700414C4C4F5720494E534944450044C6
:10094B004F4F5220434C4F53494E47004F55545332
:10095B0049444520504552534F4E004E4F20534C67
:0B096B004F5420464F5220594F5500BA
:10097600C2A1C2A0120ACC120A887BFF7A0879CBE0
:10098600120A657FC0120AB07BFF7A0879DA120A6A
:1009960065120AA1120AA17F01120AB07BFF7A082A
:1009A60079E9120A657FC0120AB07BFF7A0879F1ED
:1009B600120A65120AA1120AA17F01120AB07BFF70
:1009C6007A0879F9120A65E4F5083098FD74092564
:1009D60008F8A699C29874092508F8E6F599309999
:0F09E600FDC2990508E508B409E012080080CAAF
:10080000E509643160030208ABE50A64386003025D
:1008100008ABE50B644260030208ABE50C6445607D
:10082000030208ABE50D644360030208ABE50E6408
:10083000327078E50F64307072E5106432706CE5E8
:1008400011643070667F01120AB07BFF7A09790962
:10085000120A657F1C120AB07BFF7A097921120AFD
:1008600065120AA1120AA17F01120AB0D2A0C2A188
:100870007BFF7A097930120A657FC0120AB07BFFCC
:100880007A09793D120A65120A38C2A0C2A1120A79
:10089000A17F01120AB0C2A0D2A17BFF7A09794AD6
:1008A000120A65120A38C2A0C2A1227F01120AB040
:1008B0007BFF7A097957120A657FC0120AB07BFF65
:0B08C0007A097966120A65120A3822D4
:100A88007F38120AB07F01120AB07F10120AB07FB5
:090A98000C120AB07F80020AB0C2
:0E0AB0008F90C2A5C2A6D2A7120AA1C2A72289
:0E0ABE008F90D2A5C2A6D2A7120AA1C2A7226B
:0E0AA100E4FFFE0FBF00010EBE17F8BF70F598
:010AAF002224
:060A65008B138A148915B1
:100A6B00E4F516AB13AA14A915851682758300122B
:0C0A7B0009F5FF6007120ABE051680E7AF
:010A8700224C
:0C0ACC00759850758920758DFDD28E2222
:100A3800E4F513F514900000AF82AE83E4FCFD7B6F
:100A4800607AEAF9F8D3120A224003A380EA05146F
:0C0A5800E514700205136402451370D908
:010A6400226F
:03000000020AD819
:0C0AD800787FE4F6D8FD758116020976DF
:1009F500BB010CE58229F582E5833AF583E02250B7
:100A050006E92582F8E622BBFE06E92582F8E22200
:0D0A1500E58229F582E5833AF583E493221A
:100A2200EB9FF5F0EA9E42F0E99D42F0EC6480C84B
:060A320064809845F022EB
:00000001FF
